:020000040800F2
:100000000000012001110008F50F0008FB0F000897
:1000100001100008071000080D1000080000000083
:1000200000000000000000000000000013100008A5
:1000300021100008000000002F1000083D100008EB
:100040005111000851110008511100085111000808
:1000500051110008511100085111000851110008F8
:1000600051110008511100085111000851110008E8
:1000700051110008511100085111000851110008D8
:100080005111000851110008511100080000000032
:1000900000000000000000000000000051110008F6
:1000A00051110008511100085111000851110008A8
:1000B00051110008491000085D1000085111000896
:1000C0005111000851110008511100085111000888
:1000D00051110008511100085111000800000000E2
:1000E00051110008511100085111000800000000D2
:1000F0000000000000000000000000005111000896
:1001000000000000511100085111000851110008B1
:1001100000000000000000000000000000000000DF
:100120005111000851110008511100085111000827
:100130005111000800000000000000000000000055
:100140000000000000000000000000005111000845
:1001500051110008511100085111000851110008F7
:1001600051110008511100080000000000000000BB
:10017000000000000000000000000000000000007F
:100180000000000051110008000000000000000005
:040190005111000801
:1001A00010B5054C237833B9044B13B10448AFF3B1
:1001B00000800123237010BD6400002000000000B7
:1001C000B442000808B5034B1BB103490348AFF321
:1001D000008008BD0000000068000020B442000854
:1001E00001F0FF01102A2BDB10F0070F08D010F8E8
:1001F000013B013A8B422DD010F0070F42B3F6D1EC
:10020000F0B441EA012141EA014122F007047FF004
:1002100000070023F0E80256083C85EA010586EA5B
:10022000010685FA47F5A3FA87F586FA47F6A5FA97
:1002300087F68EB9EED1F0BC01F0FF0102F00702A3
:1002400032B110F8013B013A83EA010313B1F8D14E
:100250000020704701387047002D06BF354603382F
:10026000073815F0010F07D1013015F4807F02BF68
:10027000013015F4C03F0130F0BC0138704700BFB9
:1002800053B94AB9002908BF00281CBF4FF0FF31FD
:100290004FF0FF3000F070B9ADF1080C6DE904CEFD
:1002A00000F006F8DDF804E0DDE9022304B0704751
:1002B0002DE9F047089E0D4604460F46002B4AD113
:1002C0008A42944665D9B2FA82F343B102FA03FC3A
:1002D000C3F120029F4020FA02F217439C404FEAEC
:1002E0001C4E1FFA8CF5B7FBFEF1220C0EFB1177AA
:1002F00042EA074201FB05F090420AD91CEB0202D8
:1003000001F1FF3780F01C81904240F219810239DF
:100310006244121AA4B2B2FBFEF00EFB102244EAB1
:10032000024400FB05F5A5420AD91CEB040400F1C8
:10033000FF3280F00781A54240F204816444023814
:1003400040EA0140641B00211EB1DC400023C6E9E5
:100350000043BDE8F0878B4208D9002E00F0ED8005
:100360000021C6E900050846BDE8F087B3FA83F12D
:10037000002949D1AB4202D3824200F2F880841AAC
:1003800065EB030201201746002EE2D0C6E90047C4
:10039000DFE702B9FFDEB2FA82F3002B40F0908073
:1003A0008A1A4FEA1C471FFA8CFE0121B2FBF7F5AF
:1003B00007FB1520220C42EA00420EFB05F090429A
:1003C00008D91CEB020205F1FF3802D2904200F27C
:1003D000CB804546121AA4B2B2FBF7F007FB1022FD
:1003E00044EA02440EFB00FEA64508D91CEB0404B7
:1003F00000F1FF3202D2A64500F2BB801046A4EB0A
:100400000E0440EA05409FE7C1F120078B4022FA25
:1004100007FC4CEA030C05FA01F420FA07F3FD404F
:100420004FEA1C492343B5FBF9F81FFA8CFE09FB80
:1004300018551C0C44EA054408FB0EF5A54202FAC7
:1004400001F200FA01F00BD91CEB040408F1FF3AA9
:1004500080F08880A54240F28580A8F102086444BB
:10046000641B9DB2B4FBF9F309FB134445EA044451
:1004700003FB0EFEA64508D91CEB040403F1FF356F
:100480006CD2A6456AD9023B644443EA0843A3FB05
:100490000295A4EB0E04AC42C846AE4656D353D0E8
:1004A00056B1B0EB080264EB0E0404FA07F7CA4039
:1004B000CC401743C6E9007418460021BDE8F08718
:1004C000C3F1200102FA03FC20FA01F225FA01F13E
:1004D0009D402A434FEA1C471FFA8CFEB1FBF7F000
:1004E00007FB1015110C41EA054100FB0EF58D428A
:1004F00004FA03F408D91CEB010100F1FF382FD2F4
:100500008D422DD902386144491B92B2B1FBF7F5F7
:1005100007FB151142EA014205FB0EF1914208D991
:100520001CEB020205F1FF3816D2914214D9023DAC
:100530006244521A45EA004138E73146304608E73E
:100540003946E6E61046FBE64845A9D2B9EB020873
:1005500065EB0C0E013BA3E74546EAE72B4694E723
:100560004046D1E7D0467BE7023D624432E7084689
:100570000AE76444023842E7704700BF80B485B0A0
:1005800000AFF860B9607A60FB68BA681A60FB680F
:1005900064221A72FB687A685A6000BF1437BD463D
:1005A0005DF8047B704780B582B000AF78607B68EF
:1005B0001B680021184601F0C5FE7B681B680421FA
:1005C000184601F0BFFE7B681B680821184601F041
:1005D000B9FE7B681B681B6800225A637B681B6836
:1005E0001B68FF229A637B681B681B68FF22DA6323
:1005F00000BF0837BD4680BD80B483B000AF7860CF
:1006000039603B681A787B685A723B685A787B6815
:100610009A723B689A787B68DA727B685A7A7B6850
:100620001B681B685A637B689A7A7B681B681B6827
:100630009A637B68DA7A7B681B681B68DA6300BFA1
:100640000C37BD465DF8047B704780B58EB000AFB7
:10065000F8600B467A60FB7207F110037B61FB7A4E
:10066000002B4CD100237B631FE07B6BDAB27B69EC
:100670001A707B6900225A707B6900229A7000F020
:10068000CFFD0246FB685B68D31AFA68127A934280
:1006900008D97969F868FFF7AFFF00F0C1FD02469D
:1006A000FB685A607B6B01337B637B6BFE2BDCDD6D
:1006B000FF233B631FE03B6BDAB27B691A707B69F7
:1006C00000225A707B6900229A7000F0A9FD024650
:1006D000FB685B68D31AFA68127A934208D9796981
:1006E000F868FFF789FF00F09BFD0246FB685A603F
:1006F0003B6B013B3B633B6B002BDCDCF2E0FB7AAA
:10070000012B4CD10023FB621FE07B6900221A7091
:10071000FB6ADAB27B695A707B6900229A7000F03A
:100720007FFD0246FB685B68D31AFA68127A93422F
:1007300008D97969F868FFF75FFF00F071FD02469C
:10074000FB685A60FB6A0133FB62FB6AFE2BDCDD4F
:10075000FF23BB621FE07B6900221A70BB6ADAB21A
:100760007B695A707B6900229A7000F059FD02463D
:10077000FB685B68D31AFA68127A934208D97969E0
:10078000F868FFF739FF00F04BFD0246FB685A603E
:10079000BB6A013BBB62BB6A002BDCDCA2E0FB7ADC
:1007A000022B4CD100237B621FE07B6900221A7070
:1007B0007B6900225A707B6ADAB27B699A7000F01A
:1007C0002FFD0246FB685B68D31AFA68127A9342DF
:1007D00008D97969F868FFF70FFF00F021FD02469C
:1007E000FB685A607B6A01337B627B6AFE2BDCDD2F
:1007F000FF233B621FE07B6900221A707B690022A5
:100800005A703B6ADAB27B699A7000F009FD0246C1
:10081000FB685B68D31AFA68127A934208D979693F
:10082000F868FFF7E9FE00F0FBFC0246FB685A603F
:100830003B6A013B3B623B6A002BDCDC52E0FB7A0B
:10084000032B4FD10023FB6121E0FB69DAB27B6906
:100850001A70FB69DAB27B695A70FB69DAB27B699C
:100860009A7000F0DDFC0246FB685B68D31AFA68F8
:10087000127A934208D97969F868FFF7BDFE00F053
:10088000CFFC0246FB685A60FB690133FB61FB69E0
:10089000FE2BDADDFF23BB6121E0BB69DAB27B69A5
:1008A0001A70BB69DAB27B695A70BB69DAB27B69CC
:1008B0009A7000F0B5FC0246FB685B68D31AFA68D0
:1008C000127A934208D97969F868FFF795FE00F02B
:1008D000A7FC0246FB685A60BB69013BBB61BB6970
:1008E000002BDADC00BF3837BD4680BD80B586B04E
:1008F00000AF00F02FFC00F08DF800F0FBF900F0E5
:10090000CFF900F0E9F800F07DF9394801F006FC74
:10091000384B4FF4FA725A6300F082FC0346364AB1
:100920001360364B1B68344A126835491846FFF786
:1009300025FE324B1B681846FFF735FE0323FB7577
:100940000123BB7500237B7502233B752D4B1B6870
:1009500000221A702B4B1B680A225A70294B1B6805
:10096000FF221A70254B1B68264A1268114618464A
:10097000FFF742FE244B1B780E2B08D81F4B1B6839
:100980001D4A1268797D1846FFF75FFE18E01E4B7E
:100990001B781D2B08D8194B1B68174A1268B97DA4
:1009A0001846FFF752FE0BE0174B1B781E2B07D99A
:1009B000124B1B68104A1268F97D1846FFF745FE76
:1009C000114B1B783C2B02D10F4B00221A700E4B9F
:1009D0001B781A463B1D0D49184602F0C7FF3861C7
:1009E0003B699AB2391D6423094802F003FCC1E750
:1009F000C80000200008004068010020000000201E
:100A0000800000200400002067010020CC42000884
:100A10001001002080B594B000AF07F12003302210
:100A20000021184602F0C2FF07F10C0300221A60F1
:100A30005A609A60DA601A610023BB60244B1B6C19
:100A4000234A43F080531364214B1B6C03F0805303
:100A5000BB60BB6800237B601E4B1B6823F44043D4
:100A60001C4A43F4004313601A4B1B6803F44043D1
:100A70007B607B6802233B620123FB6210233B63A4
:100A80000023BB6307F12003184600F09FFE0346D6
:100A9000002B01D000F098F90F23FB6000233B618D
:100AA00000237B614FF4A053BB614FF4A053FB6163
:100AB00007F10C030021184601F000F90346002B52
:100AC00001D000F081F900BF5037BD4680BD00BFA6
:100AD000003802400070004080B58EB000AF07F1D2
:100AE000280300221A605A609A60DA6007F1200336
:100AF00000221A605A603B1D00221A605A609A60F8
:100B0000DA601A615A619A613C4B3D4A1A603B4B6C
:100B100000225A60394B00229A60384BFF22DA607B
:100B2000364B00221A61354B80229A61334801F01E
:100B3000A5FA0346002B01D000F046F94FF480538C
:100B4000BB6207F1280319462C4801F0B9FE0346A1
:100B5000002B01D000F038F9284801F09AFB034639
:100B6000002B01D000F030F9244801F039FB034696
:100B7000002B01D000F028F900233B6200237B62A8
:100B800007F1200319461D4802F062FA0346002BC4
:100B900001D000F019F960237B600023BB600023C3
:100BA000FB6000237B613B1D00221946134801F0C6
:100BB000C5FD0346002B01D000F006F93B1D0422C1
:100BC00019460E4801F0BAFD0346002B01D000F093
:100BD000FBF800237B603B1D08221946074801F003
:100BE00051FD0346002B01D000F0EEF8034800F061
:100BF0005FF900BF3837BD4680BD00BF80000020D0
:100C00000004004080B586B000AF07F10803002261
:100C10001A605A609A60DA603B4600221A605A6095
:100C20001D4B1E4A1A601C4B41F63F725A601A4B0C
:100C300000229A60184B40F2E732DA60164B00222D
:100C40001A61154B80229A61134801F017FA034686
:100C5000002B01D000F0B8F84FF48053BB6007F1CF
:100C6000080319460C4801F02BFE0346002B01D067
:100C700000F0AAF800233B6000237B603B46194646
:100C8000054802F0E5F90346002B01D000F09CF87E
:100C900000BF1837BD4680BDC800002000080040D6
:100CA00080B500AF114B124A1A60104B4FF4E1327D
:100CB0005A600E4B00229A600C4B0022DA600B4BFC
:100CC00000221A61094B0C225A61084B00229A61DA
:100CD000064B0022DA61054802F03CFA0346002B7D
:100CE00001D000F071F800BF80BD00BF10010020EE
:100CF0000044004080B588B000AF07F10C0300222B
:100D00001A605A609A60DA601A610023BB60204B57
:100D10001B6B1F4A43F0040313631D4B1B6B03F053
:100D20000403BB60BB6800237B60194B1B6B184A34
:100D300043F001031363164B1B6B03F001037B604D
:100D40007B6800233B60124B1B6B114A43F002038C
:100D500013630F4B1B6B03F002033B603B680022E5
:100D60004FF400510B4800F0FDFC4FF40053FB60C2
:100D700001233B6100237B610023BB6107F10C036E
:100D80001946044800F06AFB00BF2037BD4680BD0D
:100D9000003802400008024080B582B000AF7860A1
:100DA000074B1B780133DAB2054B1A704FF4005130
:100DB000044800F0F0FC00BF0837BD4680BD00BF0E
:100DC000670100200008024080B400AF72B600BF87
:100DD000FEE7000080B483B000AF00237B60104BBF
:100DE0005B6C0F4A43F4804353640D4B5B6C03F41C
:100DF00080437B607B6800233B60094B1B6C084A87
:100E000043F080531364064B1B6C03F080533B602C
:100E10003B6800BF0C37BD465DF8047B704700BFE0
:100E20000038024080B584B000AF78607B681B68F2
:100E30001C4A934216D10023FB601B4B1B6C1A4AC1
:100E400043F002031364184B1B6C03F00203FB60B6
:100E5000FB68002200211D2000F0C9FA1D2000F0CF
:100E6000E2FA1AE07B681B68104A934215D100230E
:100E7000BB600D4B1B6C0C4A43F0040313640A4B1C
:100E80001B6C03F00403BB60BB68002200211E2022
:100E900000F0ADFA1E2000F0C6FA00BF1037BD46C4
:100EA00080BD00BF00040040003802400008004040
:100EB00080B58AB000AF786007F1140300221A6091
:100EC0005A609A60DA601A617B681B68214A934213
:100ED0003BD100233B61204B1B6B1F4A43F00103B6
:100EE00013631D4B1B6B03F001033B613B69002344
:100EF000FB60194B1B6B184A43F002031363164B3C
:100F00001B6B03F00203FB60FB68C0237B610223C1
:100F1000BB610023FB6100233B6202237B6207F17C
:100F2000140319460D4800F099FA01237B6102234E
:100F3000BB610023FB6100233B6202237B6207F15C
:100F400014031946064800F089FA00BF2837BD4649
:100F500080BD00BF00040040003802400000024095
:100F60000004024080B58AB000AF786007F1140336
:100F700000221A605A609A60DA601A617B681B6806
:100F8000194A93422BD100233B61184B1B6C174A23
:100F900043F400331364154B1B6C03F400333B61C3
:100FA0003B690023FB60114B1B6B104A43F00103AC
:100FB00013630E4B1B6B03F00103FB60FB680C23F8
:100FC0007B610223BB610023FB6103233B62072398
:100FD0007B6207F114031946054800F03FFA00BF91
:100FE0002837BD4680BD00BF0044004000380240A5
:100FF0000000024080B400AFFEE780B400AFFEE71F
:1010000080B400AFFEE780B400AFFEE780B400AF6D
:10101000FEE780B400AF00BFBD465DF8047B7047BB
:1010200080B400AF00BFBD465DF8047B704780B45C
:1010300000AF00BFBD465DF8047B704780B500AFD0
:1010400000F0DAF800BF80BD80B500AF024801F0C3
:1010500029FA00BF80BD00BF8000002080B500AF2E
:10106000024801F01FFA00BF80BD00BFC800002089
:1010700080B586B000AF7860144A154BD31A7B61F7
:101080007B693B61134B1B68002B02D1114B124A49
:101090001A60104B1A687B6813443A699A4207D267
:1010A00002F08CFC03460C221A604FF0FF3309E07B
:1010B000084B1B68FB60074B1A687B681344054AA2
:1010C0001360FB6818461837BD4680BD000001203C
:1010D000000400006C010020C002002080B400AFBA
:1010E000064BD3F88830054A43F47003C2F88830C1
:1010F00000BFBD465DF8047B704700BF00ED00E017
:10110000DFF834D0FFF7EAFF0C480D490D4A002301
:1011100002E0D458C4500433C4188C42F9D30A4AAC
:101120000A4C002301E013600432A242FBD302F018
:101130004BFCFFF7DBFB70470000012000000020A4
:10114000640000203043000864000020BC0200203E
:10115000FEE7000080B500AF0E4B1B680D4A43F45C
:10116000007313600B4B1B680A4A43F480631360DF
:10117000084B1B68074A43F480731360032000F098
:101180002BF90F2000F008F8FFF724FE0023184683
:1011900080BD00BF003C024080B582B000AF7860E7
:1011A000124B1A68124B1B7819464FF47A73B3FB33
:1011B000F1F3B2FBF3F3184600F043F90346002BBA
:1011C00001D001230EE07B680F2B0AD8002279683A
:1011D0004FF0FF3000F00BF9064A7B6813600023E4
:1011E00000E0012318460837BD4680BD08000020F6
:1011F000100000200C00002080B400AF064B1B78CC
:101200001A46064B1B681344044A136000BFBD46D0
:101210005DF8047B704700BF1000002070010020C3
:1012200080B400AF034B1B681846BD465DF8047BD5
:10123000704700BF7001002080B485B000AF7860B7
:101240007B6803F00703FB600C4BDB68BB60BA688C
:101250004FF6FF031340BB60FB681A02BB681343E1
:1012600043F0BF6343F40033BB60044ABB68D36000
:1012700000BF1437BD465DF8047B704700ED00E009
:1012800080B400AF044BDB681B0A03F00703184669
:10129000BD465DF8047B704700ED00E080B483B08C
:1012A00000AF0346FB7197F90730002B0BDBFB798E
:1012B00003F01F02074997F907305B09012000FA84
:1012C00002F241F8232000BF0C37BD465DF8047BD5
:1012D000704700BF00E100E080B483B000AF034678
:1012E0003960FB7197F90730002B0ADB3B68DAB2F3
:1012F0000C4997F907301201D2B20B4483F800234E
:101300000AE03B68DAB20849FB7903F00F03043BBB
:101310001201D2B20B441A7600BF0C37BD465DF8FD
:10132000047B704700E100E000ED00E080B489B08C
:1013300000AFF860B9607A60FB6803F00703FB61F7
:10134000FB69C3F10703042B28BF0423BB61FB69BE
:101350000433062B02D9FB69033B00E000237B61C9
:101360004FF0FF32BB6902FA03F3DA43BB681A405D
:101370007B699A404FF0FF317B6901FA03F3D9434F
:101380007B680B40134318462437BD465DF8047B49
:101390007047000080B582B000AF78607B68013B89
:1013A000B3F1807F01D301230FE00A4A7B68013B40
:1013B00053600F214FF0FF30FFF78EFF054B0022E7
:1013C0009A60044B07221A60002318460837BD466E
:1013D00080BD00BF10E000E080B582B000AF786053
:1013E0007868FFF729FF00BF0837BD4680BD80B58C
:1013F00086B000AF0346B9607A60FB7300237B615F
:10140000FFF73EFF78617A68B9687869FFF78EFF69
:10141000024697F90F3011461846FFF75DFF00BFEF
:101420001837BD4680BD80B582B000AF0346FB7162
:1014300097F907301846FFF731FF00BF0837BD4660
:1014400080BD80B582B000AF78607868FFF7A2FFFA
:10145000034618460837BD4680BD000080B489B0F9
:1014600000AF7860396000237B6100233B6100237B
:10147000BB610023FB6159E10122FB6902FA03F31E
:101480007B613B681B687A6913403B613A697B6901
:101490009A4240F048813B685B6803F00303012BEC
:1014A00005D03B685B6803F00303022B30D17B68F7
:1014B0009B68BB61FB695B00032202FA03F3DB4319
:1014C000BA691340BB613B68DA68FB695B0002FAEA
:1014D00003F3BA691343BB617B68BA699A607B689E
:1014E0005B68BB610122FB6902FA03F3DB43BA6963
:1014F0001340BB613B685B681B0903F00102FB6999
:1015000002FA03F3BA691343BB617B68BA695A6094
:101510003B685B6803F00303032B17D07B68DB6831
:10152000BB61FB695B00032202FA03F3DB43BA6988
:101530001340BB613B689A68FB695B0002FA03F3E6
:10154000BA691343BB617B68BA69DA603B685B6860
:1015500003F00303022B23D1FB69DA087B6808320E
:1015600053F82230BB61FB6903F007039B000F2295
:1015700002FA03F3DB43BA691340BB613B681A69A3
:10158000FB6903F007039B0002FA03F3BA691343F4
:10159000BB61FB69DA087B680832B96943F822103D
:1015A0007B681B68BB61FB695B00032202FA03F3E3
:1015B000DB43BA691340BB613B685B6803F003021D
:1015C000FB695B0002FA03F3BA691343BB617B68F2
:1015D000BA691A603B685B6803F44033002B00F083
:1015E000A2800023FB60574B5B6C564A43F4804358
:1015F0005364544B5B6C03F48043FB60FB68524ABA
:10160000FB699B08023352F82330BB61FB6903F08E
:1016100003039B000F2202FA03F3DB43BA69134072
:10162000BB617B68494A934219D07B68484A934220
:1016300013D07B68474A93420DD07B68464A934259
:1016400007D07B68454A934201D1042308E0072371
:1016500006E0032304E0022302E0012300E000236C
:10166000FA6902F0030292009340BA691343BB6126
:101670003549FB699B080233BA6941F82320384B8E
:101680009B68BB613B69DB43BA691340BB613B6844
:101690005B6803F48013002B03D0BA693B691343E2
:1016A000BB612F4ABB6993602D4BDB68BB613B6913
:1016B000DB43BA691340BB613B685B6803F400130A
:1016C000002B03D0BA693B691343BB61244ABB6951
:1016D000D360234B5B68BB613B69DB43BA69134052
:1016E000BB613B685B6803F40033002B03D0BA692D
:1016F0003B691343BB611A4ABB695360184B1B68B3
:10170000BB613B69DB43BA691340BB613B685B6803
:1017100003F48033002B03D0BA693B691343BB61E8
:101720000F4ABB691360FB690133FB61FB690F2B37
:101730007FF6A2AE00BF00BF2437BD465DF8047B34
:10174000704700BF003802400038014000000240EE
:101750000004024000080240000C02400010024059
:10176000003C014080B483B000AF78600B467B80C2
:1017700013467B707B78002B03D07A887B689A6154
:1017800003E07B881A047B689A6100BF0C37BD4672
:101790005DF8047B704780B485B000AF78600B467D
:1017A0007B807B685B69FB607A88FB6813401A0466
:1017B000FB68D9437B880B401A437B689A6100BF62
:1017C0001437BD465DF8047B7047000080B586B0D5
:1017D00000AF78607B68002B01D1012367E27B6852
:1017E0001B6803F00103002B75D0884B9B6803F046
:1017F0000C03042B0CD0854B9B6803F00C03082BC7
:1018000012D1824B5B6803F48003B3F5800F0BD1D8
:101810007E4B1B6803F40033002B5BD07B685B6856
:10182000002B57D1012342E27B685B68B3F5803F10
:1018300006D1764B1B68754A43F4803313601DE074
:101840007B685B68B3F5A02F0CD1704B1B686F4AA7
:1018500043F4802313606D4B1B686C4A43F4803360
:1018600013600BE0694B1B68684A23F480331360F4
:10187000664B1B68654A23F4802313607B685B68B2
:10188000002B13D0FFF7CCFC386108E0FFF7C8FC51
:1018900002463B69D31A642B01D9032307E25B4B51
:1018A0001B6803F40033002BF0D014E0FFF7B8FC02
:1018B000386108E0FFF7B4FC02463B69D31A642B99
:1018C00001D90323F3E1514B1B6803F40033002BD0
:1018D000F0D100E000BF7B681B6803F00203002B1F
:1018E00063D04A4B9B6803F00C03002B0BD0474B93
:1018F0009B6803F00C03082B1CD1444B5B6803F47A
:101900008003002B16D1414B1B6803F00203002B10
:1019100005D07B68DB68012B01D00123C7E13B4B7D
:101920001B6823F0F8027B681B69DB00374913430F
:101930000B603AE07B68DB68002B20D0344B01223F
:101940001A60FFF76DFC386108E0FFF769FC02469A
:101950003B69D31A022B01D90323A8E12B4B1B6847
:1019600003F00203002BF0D0284B1B6823F0F80291
:101970007B681B69DB00254913430B6015E0244B92
:1019800000221A60FFF74CFC386108E0FFF748FCC2
:1019900002463B69D31A022B01D9032387E11B4B73
:1019A0001B6803F00203002BF0D17B681B6803F077
:1019B0000803002B36D07B685B69002B16D0154BD3
:1019C00001221A60FFF72CFC386108E0FFF728FCC1
:1019D00002463B69D31A022B01D9032367E10B4B63
:1019E0005B6F03F00203002BF0D01BE0094B0022D9
:1019F0001A60FFF715FC38610EE0FFF711FC024694
:101A00003B69D31A022B07D9032350E10038024067
:101A100000004742800E4742884B5B6F03F0020391
:101A2000002BEAD17B681B6803F00403002B00F055
:101A300097800023FB75814B1B6C03F08053002BB8
:101A40000FD10023BB607D4B1B6C7C4A43F080535D
:101A500013647A4B1B6C03F08053BB60BB6801239B
:101A6000FB75774B1B6803F48073002B18D1744B04
:101A70001B68734A43F480731360FFF7D1FB38612E
:101A800008E0FFF7CDFB02463B69D31A022B01D9D0
:101A900003230CE16A4B1B6803F48073002BF0D026
:101AA0007B689B68012B06D1644B1B6F634A43F034
:101AB000010313671CE07B689B68052B0CD15F4B0F
:101AC0001B6F5E4A43F0040313675C4B1B6F5B4A5A
:101AD00043F0010313670BE0584B1B6F574A23F089
:101AE00001031367554B1B6F544A23F0040313671C
:101AF0007B689B68002B15D0FFF792FB38610AE0EA
:101B0000FFF78EFB02463B69D31A41F288329342BB
:101B100001D90323CBE0494B1B6F03F00203002BD9
:101B2000EED014E0FFF77CFB38610AE0FFF778FBAA
:101B300002463B69D31A41F28832934201D903230A
:101B4000B5E03E4B1B6F03F00203002BEED1FB7D93
:101B5000012B05D1394B1B6C384A23F08053136499
:101B60007B689B69002B00F0A180344B9B6803F0DD
:101B70000C03082B5CD07B689B69022B41D1314B55
:101B800000221A60FFF74CFB386108E0FFF748FBC2
:101B900002463B69D31A022B01D9032387E0274B66
:101BA0001B6803F00073002BF0D17B68DA697B6857
:101BB0001B6A1A437B685B6A9B011A437B689B6ABA
:101BC0005B08013B1B041A437B68DB6A1B061B494D
:101BD00013434B601B4B01221A60FFF721FB386156
:101BE00008E0FFF71DFB02463B69D31A022B01D91F
:101BF00003235CE0114B1B6803F00073002BF0D053
:101C000054E0104B00221A60FFF70AFB386108E02D
:101C1000FFF706FB02463B69D31A022B01D90323C7
:101C200045E0064B1B6803F00073002BF0D13DE04C
:101C30007B689B69012B07D1012338E00038024003
:101C400000700040600047421B4B5B68FB607B6894
:101C50009B69012B28D0FB6803F480027B68DB6959
:101C60009A4221D1FB6803F03F027B681B6A9A42CB
:101C70001AD1FA6847F6C07313407A68526A920123
:101C8000934211D1FB6803F440327B689B6A5B0886
:101C9000013B1B049A4207D1FB6803F070627B682A
:101CA000DB6A1B069A4201D0012300E0002318469C
:101CB0001837BD4680BD00BF0038024080B584B0F3
:101CC00000AF786039607B68002B01D10123CCE044
:101CD000684B1B6803F007033A689A420CD9654BBE
:101CE0003A68D2B21A70634B1B6803F007033A6874
:101CF0009A4201D00123B8E07B681B6803F002031D
:101D0000002B20D07B681B6803F00403002B05D058
:101D1000594B9B68584A43F4E05393607B681B68B7
:101D200003F00803002B05D0534B9B68524A43F441
:101D300060439360504B9B6823F0F0027B689B6884
:101D40004D4913438B607B681B6803F00103002B34
:101D500044D07B685B68012B07D1474B1B6803F4B9
:101D60000033002B19D101237FE07B685B68022BD5
:101D700003D07B685B68032B07D13F4B1B6803F0E4
:101D80000073002B09D101236FE03B4B1B6803F06C
:101D90000203002B01D1012367E0374B9B6823F03E
:101DA00003027B685B68344913438B60FFF738FAA2
:101DB000F8600AE0FFF734FA0246FB68D31A41F2F2
:101DC0008832934201D903234FE02B4B9B6803F0E9
:101DD0000C027B685B689B009A42EBD1254B1B6829
:101DE00003F007033A689A420CD2224B3A68D2B207
:101DF0001A70204B1B6803F007033A689A4201D01F
:101E0000012332E07B681B6803F00403002B08D039
:101E1000194B9B6823F4E0527B68DB681649134337
:101E20008B607B681B6803F00803002B09D0124B02
:101E30009B6823F460427B681B69DB000E491343F7
:101E40008B6000F021F802460B4B9B681B0903F0E6
:101E50000F030A49CB5C22FA03F3094A1360094BCA
:101E60001B681846FFF798F9002318461037BD463F
:101E700080BD00BF003C024000380240D442000850
:101E8000080000200C0000202DE9B04F90B000AFFA
:101E900000237B630023FB6300233B630023BB63BE
:101EA000594B9B6803F00C03082B0DD0082B00F254
:101EB000A180002B02D0042B03D09BE0534BBB63CB
:101EC0009BE0534BBB6398E04F4B5B6803F03F03D1
:101ED0007B634D4B5B6803F48003002B28D04A4B97
:101EE0005B689B0900223B627A623B6AC3F308008D
:101EF0000021474B03FB01F2002300FB03F31344D3
:101F0000434AA0FB0212FA620A46BA62FA6A134412
:101F1000FB627B6B0022BB61FA61D7E90623D7E93C
:101F20000A01FEF7ADF902460B461346FB6353E088
:101F3000354B5B689B0900223B617A613B69C3F3C7
:101F4000080A4FF0000B52465B464FF000004FF07E
:101F50000001590141EAD261500102460B46B2EB41
:101F60000A0863EB0B094FF000024FF000034FEA41
:101F7000891343EA98634FEA8812B2EB080463EBD3
:101F800009054FF000024FF00003EB0043EA5473E1
:101F9000E20014461D4614EB0A033B6045EB0B03BD
:101FA0007B604FF000024FF00003D7E9004529465F
:101FB0008B02214643EA915321468A021046194674
:101FC0007B6B0022BB60FA60D7E90223FEF758F969
:101FD00002460B461346FB630B4B5B681B0C03F07E
:101FE000030301335B003B63FA6B3B6BB2FBF3F320
:101FF000BB6302E0054BBB6300BFBB6B18464037B9
:10200000BD46BDE8B08F00BF003802400024F40098
:1020100040787D0180B400AF034B1B681846BD4675
:102020005DF8047B704700BF0800002080B500AF5A
:10203000FFF7F0FF0246054B9B689B0A03F007037E
:102040000349CB5C22FA03F3184680BD00380240F6
:10205000E442000880B500AFFFF7DCFF0246054B05
:102060009B685B0B03F007030349CB5C22FA03F385
:10207000184680BD00380240E442000880B582B0B6
:1020800000AF78607B68002B01D1012341E07B68C1
:1020900093F83D30DBB2002B06D17B68002283F839
:1020A0003C207868FEF7BEFE7B68022283F83D2064
:1020B0007B681A687B6804331946104600F0F0FC10
:1020C0007B68012283F846207B68012283F83E204A
:1020D0007B68012283F83F207B68012283F840203F
:1020E0007B68012283F841207B68012283F842202B
:1020F0007B68012283F843207B68012283F8442017
:102100007B68012283F845207B68012283F83D200B
:10211000002318460837BD4680BD000080B485B056
:1021200000AF78607B6893F83D30DBB2012B01D0C3
:10213000012344E07B68022283F83D207B681B6812
:10214000DA687B681B6842F00102DA607B681B6812
:102150001E4A934218D07B681B68B3F1804F13D09E
:102160007B681B681A4A93420ED07B681B68194A29
:10217000934209D07B681B68174A934204D07B685E
:102180001B68164A934211D17B681B689B6803F059
:102190000703FB60FB68062B10D07B681B681A687E
:1021A0007B681B6842F001021A6007E07B681B68CD
:1021B0001A687B681B6842F001021A600023184607
:1021C0001437BD465DF8047B704700BF0000014036
:1021D0000004004000080040000C004000400140A6
:1021E00080B582B000AF78607B68002B01D10123FD
:1021F00041E07B6893F83D30DBB2002B06D17B6871
:10220000002283F83C20786800F039F87B680222CD
:1022100083F83D207B681A687B68043319461046B2
:1022200000F03EFC7B68012283F846207B68012297
:1022300083F83E207B68012283F83F207B680122DF
:1022400083F840207B68012283F841207B680122CB
:1022500083F842207B68012283F843207B680122B7
:1022600083F844207B68012283F845207B680122A3
:1022700083F83D20002318460837BD4680BD80B452
:1022800083B000AF786000BF0C37BD465DF8047BBB
:10229000704780B582B000AF78607B68002B01D1B9
:1022A000012341E07B6893F83D30DBB2002B06D17F
:1022B0007B68002283F83C20786800F039F87B685E
:1022C000022283F83D207B681A687B680433194634
:1022D000104600F0E5FB7B68012283F846207B680E
:1022E000012283F83E207B68012283F83F207B682F
:1022F000012283F840207B68012283F841207B681B
:10230000012283F842207B68012283F843207B6806
:10231000012283F844207B68012283F845207B68F2
:10232000012283F83D20002318460837BD4680BDB2
:1023300080B483B000AF786000BF0C37BD465DF855
:10234000047B704780B584B000AF786039603B682B
:10235000002B09D17B6893F83E30DBB2012B14BF10
:1023600001230023DBB222E03B68042B09D17B6808
:1023700093F83F30DBB2012B14BF01230023DBB203
:1023800015E03B68082B09D17B6893F84030DBB23D
:10239000012B14BF01230023DBB208E07B6893F814
:1023A0004130DBB2012B14BF01230023DBB2002B31
:1023B00001D0012368E03B68002B04D17B68022236
:1023C00083F83E2013E03B68042B04D17B68022293
:1023D00083F83F200BE03B68082B04D17B68022286
:1023E00083F8402003E07B68022283F841207B6869
:1023F0001B6801223968184600F004FE7B681B68E0
:10240000234A934207D17B681B685A6C7B681B6820
:1024100042F400425A647B681B681D4A934218D0FC
:102420007B681B68B3F1804F13D07B681B68194A27
:1024300093420ED07B681B68174A934209D07B6891
:102440001B68164A934204D07B681B68144A934267
:1024500011D17B681B689B6803F00703FB60FB6876
:10246000062B10D07B681B681A687B681B6842F0DB
:1024700001021A6007E07B681B681A687B681B68AA
:1024800042F001021A60002318461037BD4680BD95
:10249000000001400004004000080040000C004023
:1024A0000040014080B584B000AF78607B681B6855
:1024B000DB68FB607B681B681B69BB60BB6803F063
:1024C0000203002B20D0FB6803F00203002B1BD07B
:1024D0007B681B686FF002021A617B6801221A7721
:1024E0007B681B689B6903F00303002B03D07868AB
:1024F00000F0B7FA05E0786800F0A9FA786800F013
:10250000BAFA7B6800221A77BB6803F00403002B39
:1025100020D0FB6803F00403002B1BD07B681B68F2
:102520006FF004021A617B6802221A777B681B68CD
:102530009B6903F44073002B03D0786800F091FA94
:1025400005E0786800F083FA786800F094FA7B6818
:1025500000221A77BB6803F00803002B20D0FB6829
:1025600003F00803002B1BD07B681B686FF0080288
:102570001A617B6804221A777B681B68DB6903F0A9
:102580000303002B03D0786800F06BFA05E078684D
:1025900000F05DFA786800F06EFA7B6800221A7726
:1025A000BB6803F01003002B20D0FB6803F010037E
:1025B000002B1BD07B681B686FF010021A617B68D0
:1025C00008221A777B681B68DB6903F44073002BD1
:1025D00003D0786800F045FA05E0786800F037FA33
:1025E000786800F048FA7B6800221A77BB6803F02D
:1025F0000103002B0CD0FB6803F00103002B07D074
:102600007B681B686FF001021A617868FEF7C4FBF3
:10261000BB6803F08003002B0CD0FB6803F0800341
:10262000002B07D07B681B686FF080021A61786806
:1026300000F086FDBB6803F04003002B0CD0FB6864
:1026400003F04003002B07D07B681B686FF040024B
:102650001A61786800F019FABB6803F02003002BB8
:102660000CD0FB6803F02003002B07D07B681B68AD
:102670006FF020021A61786800F058FD00BF103733
:10268000BD4680BD80B586B000AFF860B9607A60A5
:102690000023FB75FB6893F83C30012B01D102232A
:1026A00048E0FB68012283F83C207B680C2B39D87A
:1026B00001A252F823F000BFED26000825270008EC
:1026C0002527000825270008FB26000825270008E5
:1026D00025270008252700080927000825270008C6
:1026E000252700082527000817270008FB681B6816
:1026F000B968184600F060FA17E0FB681B68B96813
:10270000184600F0BFFA10E0FB681B68B96818466D
:1027100000F024FB09E0FB681B68B968184600F06C
:1027200087FB02E00123FB7500BFFB68002283F8F2
:102730003C20FB7D18461837BD4680BD80B586B06D
:1027400000AFF860B9607A600023FB75FB6893F80E
:102750003C30012B01D10223AEE0FB68012283F85B
:102760003C207B680C2B00F29F8001A252F823F0E2
:10277000A5270008A9280008A9280008A9280008FA
:10278000E5270008A9280008A9280008A9280008AA
:1027900027280008A9280008A9280008A928000857
:1027A00067280008FB681B68B968184600F004FA3F
:1027B000FB681B689A69FB681B6842F008029A6113
:1027C000FB681B689A69FB681B6822F004029A6127
:1027D000FB681B689969BB681A69FB681B680A4338
:1027E0009A6164E0FB681B68B968184600F04AFA11
:1027F000FB681B689A69FB681B6842F400629A6177
:10280000FB681B689A69FB681B6822F480629A6106
:10281000FB681B689969BB681B691A02FB681B6827
:102820000A439A6143E0FB681B68B968184600F0E8
:1028300095FAFB681B68DA69FB681B6842F00802BE
:10284000DA61FB681B68DA69FB681B6822F0040226
:10285000DA61FB681B68D969BB681A69FB681B6889
:102860000A43DA6123E0FB681B68B968184600F088
:10287000DFFAFB681B68DA69FB681B6842F40062D8
:10288000DA61FB681B68DA69FB681B6822F4806206
:10289000DA61FB681B68D969BB681B691A02FB68AF
:1028A0001B680A43DA6102E00123FB7500BFFB6885
:1028B000002283F83C20FB7D18461837BD4680BDBA
:1028C00080B584B000AF786039600023FB737B680B
:1028D00093F83C30012B01D10223B4E07B68012244
:1028E00083F83C207B68022283F83D207B681B68CC
:1028F0009B68BB60BB6823F07703BB60BB6823F4B5
:102900007F43BB607B681B68BA689A603B681B6842
:10291000B3F5005F3ED0B3F5005F00F28780B3F5FA
:10292000805F00F08680B3F5805F7FD8702B1AD06F
:10293000702B7BD8602B50D0602B77D8502B3CD09D
:10294000502B73D8402B58D0402B6FD8302B64D0ED
:10295000302B6BD8202B60D0202B67D8002B5CD07D
:10296000102B5AD062E07B6818683B6899683B6816
:102970005A683B68DB6800F025FB7B681B689B6836
:10298000BB60BB6843F07703BB607B681B68BA68B9
:102990009A604FE07B6818683B6899683B685A68A2
:1029A0003B68DB6800F00EFB7B681B689A687B68FD
:1029B0001B6842F480429A603CE07B6818683B6880
:1029C00059683B68DB681A4600F082FA7B681B682E
:1029D0005021184600F0DBFA2CE07B6818683B6851
:1029E00059683B68DB681A4600F0A1FA7B681B68EF
:1029F0006021184600F0CBFA1CE07B6818683B6841
:102A000059683B68DB681A4600F062FA7B681B680D
:102A10004021184600F0BBFA0CE07B681A683B685E
:102A20001B681946104600F0B2FA03E00123FB735D
:102A300000E000BF7B68012283F83D207B68002214
:102A400083F83C20FB7B18461037BD4680BD80B420
:102A500083B000AF786000BF0C37BD465DF8047BE3
:102A6000704780B483B000AF786000BF0C37BD46BC
:102A70005DF8047B704780B483B000AF786000BF1E
:102A80000C37BD465DF8047B704780B483B000AF5F
:102A9000786000BF0C37BD465DF8047B70470000CE
:102AA00080B485B000AF786039607B681B68FB60DC
:102AB0007B683A4A93420FD07B68B3F1804F0BD0CA
:102AC0007B68374A934207D07B68364A934203D0EB
:102AD0007B68354A934208D1FB6823F07003FB60A2
:102AE0003B685B68FA681343FB607B682B4A934240
:102AF0001BD07B68B3F1804F17D07B68284A934284
:102B000013D07B68274A93420FD07B68264A9342B2
:102B10000BD07B68254A934207D07B68244A9342B6
:102B200003D07B68234A934208D1FB6823F44073A7
:102B3000FB603B68DB68FA681343FB60FB6823F0CB
:102B400080023B685B691343FB607B68FA681A602C
:102B50003B689A687B68DA623B681A687B689A62AD
:102B60007B680E4A934203D13B681A697B681A63FB
:102B70007B6801225A617B681B6903F00103012B0A
:102B800005D17B681B6923F001027B681A6100BFD5
:102B90001437BD465DF8047B704700BF000001405C
:102BA0000004004000080040000C004000400140CC
:102BB000004401400048014080B487B000AF786015
:102BC00039607B681B6A7B617B681B6A23F00102AA
:102BD0007B681A627B685B683B617B689B69FB6012
:102BE000FB6823F07003FB60FB6823F00303FB60CA
:102BF0003B681B68FA681343FB607B6923F00203A0
:102C00007B613B689B687A6913437B617B681C4AE4
:102C100093420CD17B6923F008037B613B68DB683E
:102C20007A6913437B617B6923F004037B617B68D2
:102C3000134A934211D13B6923F480733B613B6992
:102C400023F400733B613B685B693A6913433B6162
:102C50003B689B693A6913433B617B683A695A60F8
:102C60007B68FA689A613B685A687B685A637B683C
:102C70007A691A6200BF1C37BD465DF8047B704755
:102C80000000014080B487B000AF786039607B6895
:102C90001B6A7B617B681B6A23F010027B681A62E7
:102CA0007B685B683B617B689B69FB60FB6823F426
:102CB000E043FB60FB6823F44073FB603B681B68E8
:102CC0001B02FA681343FB607B6923F020037B61DE
:102CD0003B689B681B017A6913437B617B681E4AD2
:102CE00093420DD17B6923F080037B613B68DB68F5
:102CF0001B017A6913437B617B6923F040037B618D
:102D00007B68154A934213D13B6923F480633B618E
:102D10003B6923F400633B613B685B699B003A6954
:102D200013433B613B689B699B003A6913433B61DA
:102D30007B683A695A607B68FA689A613B685A68AE
:102D40007B689A637B687A691A6200BF1C37BD464C
:102D50005DF8047B704700BF0000014080B487B07D
:102D600000AF786039607B681B6A7B617B681B6A97
:102D700023F480727B681A627B685B683B617B68C6
:102D8000DB69FB60FB6823F07003FB60FB6823F0EA
:102D90000303FB603B681B68FA681343FB607B69B5
:102DA00023F400737B613B689B681B027A691343C1
:102DB0007B617B681D4A93420DD17B6923F40063DC
:102DC0007B613B68DB681B027A6913437B617B692B
:102DD00023F480637B617B68144A934213D13B697F
:102DE00023F480533B613B6923F400533B613B6810
:102DF0005B691B013A6913433B613B689B691B019B
:102E00003A6913433B617B683A695A607B68FA68A8
:102E1000DA613B685A687B68DA637B687A691A62B0
:102E200000BF1C37BD465DF8047B704700000140C1
:102E300080B487B000AF786039607B681B6A3B6103
:102E40007B681B6A23F480527B681A627B685B682C
:102E50007B617B68DB69FB60FB6823F4E043FB601C
:102E6000FB6823F44073FB603B681B681B02FA6835
:102E70001343FB603B6923F400533B613B689B6851
:102E80001B033A6913433B617B68104A934209D1A3
:102E90007B6923F480437B613B685B699B017A69B2
:102EA00013437B617B687A695A607B68FA68DA61F0
:102EB0003B685A687B681A647B683A691A6200BF8B
:102EC0001C37BD465DF8047B704700BF0000014021
:102ED00080B487B000AFF860B9607A60FB681B6AA5
:102EE0007B61FB681B6A23F00102FB681A62FB68C6
:102EF0009B693B613B6923F0F0033B617B681B01ED
:102F00003A6913433B617B6923F00A037B617A6969
:102F1000BB6813437B61FB683A699A61FB687A6915
:102F20001A6200BF1C37BD465DF8047B704780B451
:102F300087B000AFF860B9607A60FB681B6A7B619C
:102F4000FB681B6A23F01002FB681A62FB689B692E
:102F50003B613B6923F470433B617B681B033A6927
:102F600013433B617B6923F0A0037B61BB681B01BA
:102F70007A6913437B61FB683A699A61FB687A69F5
:102F80001A6200BF1C37BD465DF8047B704780B4F1
:102F900085B000AF786039607B689B68FB60FB6838
:102FA00023F07003FB603A68FB68134343F00703A8
:102FB000FB607B68FA689A6000BF1437BD465DF815
:102FC000047B704780B487B000AFF860B9607A6066
:102FD0003B60FB689B687B617B6923F47F437B617B
:102FE0003B681A027B681A43BB6813437A69134330
:102FF0007B61FB687A699A6000BF1C37BD465DF84B
:10300000047B704780B487B000AFF860B9607A6025
:10301000BB6803F01F03012202FA03F37B61FB6824
:103020001A6A7B69DB431A40FB681A62FB681A6AFA
:10303000BB6803F01F03796801FA03F31A43FB68C6
:103040001A6200BF1C37BD465DF8047B7047000064
:1030500080B485B000AF786039607B6893F83C300D
:10306000012B01D1022350E07B68012283F83C2030
:103070007B68022283F83D207B681B685B68FB60ED
:103080007B681B689B68BB60FB6823F07003FB6078
:103090003B681B68FA681343FB607B681B68FA682F
:1030A0005A607B681B681C4A934218D07B681B6877
:1030B000B3F1804F13D07B681B68184A93420ED03F
:1030C0007B681B68164A934209D07B681B68154AC7
:1030D000934204D07B681B68134A93420CD1BB68AF
:1030E00023F08003BB603B685B68BA681343BB6036
:1030F0007B681B68BA689A607B68012283F83D2070
:103100007B68002283F83C20002318461437BD4614
:103110005DF8047B704700BF0000014000040040E0
:1031200000080040000C00400040014080B483B023
:1031300000AF786000BF0C37BD465DF8047B704778
:1031400080B483B000AF786000BF0C37BD465DF837
:10315000047B704780B582B000AF78607B68002B3D
:1031600001D1012342E07B6893F84130DBB2002BB0
:1031700006D17B68002283F840207868FDF7F2FED4
:103180007B68242283F841207B681B68DA687B68AF
:103190001B6822F40052DA60786800F073F97B68EB
:1031A0001B681A697B681B6822F490421A617B686D
:1031B0001B685A697B681B6822F02A025A617B6887
:1031C0001B68DA687B681B6842F40052DA607B682F
:1031D00000225A647B68202283F841207B682022E9
:1031E00083F842207B6800225A6300231846083780
:1031F000BD4680BD80B58AB002AFF860B9603B6063
:103200001346FB8000237B61FB6893F84130DBB2FF
:10321000202B75D1BB68002B02D0FB88002B01D17D
:1032200001236EE0FB6800225A64FB68212283F8C8
:103230004120FDF7F5FF7861FB68FA889A84FB6806
:10324000FA88DA84FB689B68B3F5805F08D1FB6875
:103250001B69002B04D10023FB61BB68BB6103E049
:10326000BB68FB610023BB612EE03B6800937B6978
:1032700000228021F86800F048F80346002B05D0B2
:10328000FB68202283F8412003233AE0FB69002BEE
:103290000BD1BB691B881A46FB681B68C2F3080286
:1032A0005A60BB690233BB6107E0FB691A78FB68AF
:1032B0001B685A60FB690133FB61FB68DB8C9BB2C6
:1032C000013B9AB2FB68DA84FB68DB8C9BB2002B73
:1032D000CBD13B6800937B6900224021F86800F065
:1032E00014F80346002B05D0FB68202283F8412008
:1032F000032306E0FB68202283F84120002300E03E
:10330000022318462037BD4680BD80B586B000AF89
:10331000F860B9603B601346FB713BE03B6AB3F178
:10332000FF3F37D0FDF77CFF02463B68D31A3A6A6D
:103330009A4202D33B6A002B01D103233AE0FB6897
:103340001B68DB6803F00403002B23D0BB68802BD1
:1033500020D0BB68402B1DD0FB681B681B6803F0A6
:103360000803082B16D100237B61FB681B681B68D0
:103370007B61FB681B685B687B617B69F86800F0B8
:103380001DF8FB6808225A64FB68002283F840207D
:1033900001230FE0FB681B681A68BB681340BA681A
:1033A0009A420CBF01230023DBB21A46FB799A42F2
:1033B000B4D0002318461837BD4680BD80B495B000
:1033C00000AF78607B681B680C337B637B6B53E8D2
:1033D000003F3B633B6B23F49073FB647B681B688B
:1033E0000C33FA6C3A64FB63F96B3A6C41E80023E6
:1033F000BB63BB6B002BE5D17B681B6814333B625E
:103400003B6A53E8003FFB61FB6923F00103BB64A7
:103410007B681B681433BA6CFA62BB62B96AFA6AD9
:1034200041E800237B627B6A002BE5D17B681B6B44
:10343000012B19D17B681B680C33FB60FB6853E8D8
:10344000003FBB60BB6823F010037B647B681B6894
:103450000C337A6CBA617B617969BA6941E80023FF
:103460003B613B69002BE5D17B68202283F8422039
:103470007B6800221A6300BF5437BD465DF8047BA9
:10348000704700002DE9B04FC0B000AFC7F8F4009E
:10349000D7F8F4301B681B6923F44050D7F8F43098
:1034A000D968D7F8F4301A6840EA01031361D7F8F5
:1034B000F4309A68D7F8F4301B691A43D7F8F4301F
:1034C0005B691A43D7F8F430DB691343C7F8F83067
:1034D000D7F8F4301B68DB6823F4164121F00C01A7
:1034E000D7F8F4301A68D7F8F8300B43D360D7F820
:1034F000F4301B685B6923F44070D7F8F4309969A5
:10350000D7F8F4301A6840EA01035361D7F8F43071
:103510001A688F4B9A4205D0D7F8F4301A688D4B51
:103520009A4204D1FEF796FDC7F8FC0003E0FEF7CF
:103530007DFDC7F8FC00D7F8F430DB69B3F5004F28
:1035400040F00C81D7F8FC300022C7F8E830C7F80B
:10355000EC20D7E93A4522462B469118B9655B41E4
:10356000FB65D7E91623214612EB0108294643EBF8
:1035700001094FF000024FF000034FEAC90343EA8C
:1035800058734FEAC80290469946234618EB030346
:10359000C7F8E0302B4649EB0303C7F8E430D7F80F
:1035A000F4305B680022C7F8D830C7F8DC20D7E9D0
:1035B00036120B46DB183B65134642EB03037B6573
:1035C000D7E91423D7E93801FCF75AFE02460B4627
:1035D000614BA3FB02235B091C01D7F8FC300022DE
:1035E000C7F8D030C7F8D420D7E9348942464B46D3
:1035F0009118B9645B41FB64D7E91223414612EB91
:10360000010A494643EB010B4FF000024FF0000363
:103610004FEACB0343EA5A734FEACA0292469B46EB
:1036200043461AEB0303C7F8C8304B464BEB030382
:10363000C7F8CC30D7F8F4305B680022C7F8C03048
:10364000C7F8C420D7E930120B46DB183B64134699
:1036500042EB03037B64D7E91023D7E93201FCF77F
:103660000FFE02460B4611463B4BA3FB01235B09B1
:10367000642202FB03F3CB1ADB0003F13202364B68
:10368000A3FB02235B095B0003F4F8731C44D7F827
:10369000FC300022C7F8B830C7F8BC20D7E92E8923
:1036A00042464B469118B9635B41FB63D7E90E2351
:1036B00041465118396349464B417B634FF0000244
:1036C0004FF00003D7E90CAB5946CB00514643EA13
:1036D00051735146CA0010461946034642469B188C
:1036E000C7F8B0304B460A4642EB0303C7F8B43084
:1036F000D7F8F4305B680022C7F8A830C7F8AC20D0
:10370000D7E92A120B46DB18BB62134642EB0303D0
:10371000FB62D7E90A23D7E92C01FCF7B1FD024689
:103720000B460D4BA3FB02135B09642101FB03F362
:10373000D31ADB003233084AA2FB03235B0903F0F0
:103740000702D7F8F4301B6822449A6006E100BFF4
:1037500000100140001401401F85EB51D7F8FC30E8
:103760000022C7F8A030C7F8A420D7E9288942462C
:103770004B46911839625B417B62D7E90823414689
:103780005418494643EB01054FF000024FF0000387
:10379000EB0043EA5473E20014461D464346E31827
:1037A000C7F898304B4645EB0303C7F89C30D7F871
:1037B000F4305B680022C7F89030C7F894204FF0CF
:1037C00000024FF00003D7E9244529468B0021462B
:1037D00043EA917321468A00D7E92601FCF750FDA0
:1037E00002460B46604BA3FB02235B091C01D7F882
:1037F000FC300022C7F88830C7F88C20D7E922892E
:1038000042464B469118B9615B41FB61D7E90623FB
:1038100041465118396149464B417B614FF00002E6
:103820004FF00003D7E904AB5946CB00514643EAB9
:1038300051735146CA0010461946034642469B182A
:10384000C7F880304B460A4642EB0303C7F8843082
:10385000D7F8F4305B680022BB67FA674FF00002CC
:103860004FF00003D7E91E8949468B00414643EAE1
:10387000917341468A00D7E92001FCF701FD024619
:103880000B461146384BA3FB01235B09642202FB64
:1038900003F3CB1A1B013233334AA2FB03235B0928
:1038A00003F0F0031C44D7F8FC3000223B677A6732
:1038B000D7E91C8942464B469118B9605B41FB60D1
:1038C000D7E9022341465118396049464B417B6094
:1038D0004FF000024FF00003D7E900AB5946CB0090
:1038E000514643EA51735146CA00104619460346F1
:1038F00042469B18BB664B460A4642EB0303FB66F7
:10390000D7F8F4305B6800223B667A664FF000021D
:103910004FF00003D7E9188949468B00414643EA36
:10392000917341468A00D7E91A01FCF7A9FC0246C7
:103930000B460D4BA3FB02135B09642101FB03F350
:10394000D31A1B013233084AA2FB03235B0903F09D
:103950000F02D7F8F4301B6822449A6000BF07F5C5
:103960008077BD46BDE8B08F1F85EB510EB400B522
:103970009CB01DAB029006906FF000410948079182
:103980000491094953F8042B05910068019302A999
:1039900000F092F9029B00221A701CB05DF804EB53
:1039A00003B07047600000200802FFFF0244034696
:1039B000934200D1704703F8011BF9E7014B1868E7
:1039C000704700BF6000002070B50D4D0D4C641BAA
:1039D000A4100026A64209D10B4D0C4C00F06AFC45
:1039E000641BA4100026A64205D170BD55F8043B07
:1039F00098470136EEE755F8043B98470136F2E761
:103A00002843000828430008284300082C430008E6
:103A10007047704737B5002944D051F8043C0190F5
:103A2000002BA1F10404B8BFE41800F0DFF81E4A2F
:103A30000198136833B96360146003B0BDE8304087
:103A400000F0DAB8A34208D9256861198B4201BF9A
:103A500019685B6849192160EDE71A465B680BB18C
:103A6000A342FAD911685518A5420BD12468214404
:103A70005418A3421160E0D11C685B6853600C4489
:103A80001460DAE702D90C230360D6E725686119D0
:103A90008B4204BF19685B68636004BF49192160E9
:103AA0005460CAE703B030BDB402002070B50E4EBA
:103AB0000C463168054611B900F0A6FB306021467E
:103AC000284600F0A1FB431C0AD0C41C24F00304C8
:103AD000A04207D0211A284600F096FB013001D100
:103AE0004FF0FF34204670BDB80200202DE9F843A6
:103AF000CD1C25F0030508350C2D38BF0C25002DF5
:103B0000074601DBA94205D90C233B60002630465D
:103B1000BDE8F883DFF8D08000F068F8D8F800300E
:103B20001C465CBB29463846FFF7C0FF431C0446D1
:103B300055D1D8F800402646002E45D1002C48D05B
:103B400023683146384604EB030900F05DFB8145EC
:103B50003FD121686D1A29463846FFF7A7FF01308B
:103B600037D023682B442360D8F80030002B38D09E
:103B70005A68A2422BD100225A600FE02268521BE1
:103B80001FD40B2A17D96119A342256018BF5960A9
:103B9000636808BFC8F8001062514B60384604F1F2
:103BA0000B0600F029F826F00706231DF21AAED006
:103BB0009B1BA350ABE7A3426268DDD1C8F800208D
:103BC000ECE723466468ACE734467668B4E713460E
:103BD000CCE70C233B60384600F00EF897E72560F1
:103BE000DCE75B60FFDE00BFB40200200148FFF7A6
:103BF0000FBF00BFB00200200148FFF70ABF00BF9F
:103C0000B00200202DE9F0478E681F46BE420B68C7
:103C100082460C4690462CD88A8912F4906F26D0A2
:103C20006569096905EB4505A3EB010905EBD57548
:103C30007B1C4B446D109D4238BF1D46530527D554
:103C40002946FFF753FF064660B321694A4600F054
:103C5000EBFAA38923F4906343F08003A3812661E8
:103C600065614E44A5EB09052660A5603E46BE424F
:103C700000D93E4620683246414600F0ABFAA368C0
:103C80009B1BA3602368334423600020BDE8F087BA
:103C90002A4600F0D7FA06460028E0D121695046AE
:103CA000FFF7B8FE0C23CAF80030A38943F04003A5
:103CB000A3814FF0FF30E9E72DE9F04F98468B895B
:103CC0001B069DB007460D4614460ED50B6963B919
:103CD0004021FFF70BFF2860286120B90C233B60CF
:103CE0004FF0FF30D0E040236B6100230993202385
:103CF0008DF82930CDF80C803023DFF8A4818DF8C1
:103D00002A304FF0010923469A4613F8012B0AB1D5
:103D1000252AF9D1BAEB040B0BD05B462246294683
:103D20003846FFF76FFF013000F0A980099A5A4426
:103D300009929AF80030002B00F0A18000234FF088
:103D4000FF32CDE905230AF1010A049307938DF8A8
:103D500053301A935446052214F8011B5048FCF7BF
:103D60003FFA049AD8B9D00644BF20238DF85330C7
:103D7000110744BF2B238DF853309AF800302A2BBB
:103D800015D0079A544600204FF00A0C214611F82E
:103D9000013B303B092B4DD9B0B1079214E0A0EBA9
:103DA000080309FA03F313430493A246D2E7039BE3
:103DB000191D1B680391002BBBBF5B4242F002023E
:103DC00007930793B8BF049223782E2B0CD1637806
:103DD0002A2B34D1039B1A1D1B680392002BB8BFFA
:103DE0004FF0FF3302340593DFF8C4A0217803229B
:103DF0005046FCF7F5F938B1049BA0EB0A004022CD
:103E0000824013430134049314F8011B25488DF8B4
:103E100028100622FCF7E4F9002838D0224B1BBBFF
:103E2000039B073323F0070308330393099B3344B1
:103E3000099368E70CFB02320C460120A6E7002339
:103E40000134059319464FF00A0C204610F8012B57
:103E5000303A092A03D9002BC6D00591C4E70CFBE0
:103E6000012104460123F0E703AB00932A460F4BE0
:103E700004A93846AFF30080421C0646D6D1AB8970
:103E80005B063FF52DAF09981DB0BDE8F08F03AB81
:103E900000932A46054B04A9384600F079F8EBE771
:103EA000EC420008F642000800000000053C000853
:103EB000F24200082DE9F047164699468A680B69D8
:103EC000DDF820809342B8BF1346336091F8432059
:103ED00007460C460AB1013333602368990642BF96
:103EE000336802333360256815F0060506D104F106
:103EF000190AE36832689B1AAB4226DC94F8432027
:103F0000131E226818BF012392062BD404F143022A
:103F100049463846C04701301ED02368226903F065
:103F20000603042B02BFE5683368ED1AA3680CBFD3
:103F300025EAE57500259342C4BF9B1AED180026BB
:103F40001A34B5421AD1002008E0012352464946EE
:103F50003846C047013003D14FF0FF30BDE8F0874D
:103F60000135C6E7E1185A1C302081F8430022448D
:103F700094F8451082F843100233C7E70123224624
:103F800049463846C0470130E6D00136D9E700003F
:103F90002DE9FF470F7E0C9D782F914680460C46F9
:103FA0009A4601F1430207D8622F0AD8002F00F089
:103FB000D480582F00F0C08004F1420584F842708C
:103FC0003AE0A7F16303152BF6D801A151F823F0CD
:103FD000294000083D400008B93F0008B93F0008EB
:103FE000B93F0008B93F00083D400008B93F00084C
:103FF000B93F0008B93F0008B93F00084141000837
:1040000069400008FB400008B93F0008B93F0008BC
:1040100063410008B93F000869400008B93F000843
:10402000B93F0008034100082B681A1D1B682A606D
:1040300004F1420584F8423001239FE020682B6898
:10404000070603F10401296001D51E6803E0460656
:10405000FBD5B3F90060002E03DA2D23764284F8F5
:1040600043305A480A2312E02B682068191D296042
:10407000050601D51E6802E04106FBD51E8853489F
:104080006F2F0CBF08230A23002184F843106568B2
:10409000A560002DA2BF216821F0040121600EB9A6
:1040A000002D4BD01546B6FBF3F103FB1167C75D3E
:1040B00005F8017D3746BB420E46F4D9082B0BD1DB
:1040C0002368DE0708D5236961689942DEBF302383
:1040D00005F8013C05F1FF35521B2261CDF800A027
:1040E0004B4603AA21464046FFF7E4FE01304AD181
:1040F0004FF0FF3004B0BDE8F087236843F02003A1
:1041000023603348782784F84570236829681F06A0
:1041100051F8046B02D45F0648BFB6B2DF0748BF50
:1041200043F02003296048BF23601EB9236823F0B1
:10413000200323601023A7E72448E4E71546BDE7E2
:104140002B6826686169181D286035061B6801D533
:10415000196002E07006FBD5198000232361154623
:10416000BCE72B681A1D2A601D686268002128467A
:10417000FCF736F808B1401B6060636823610023D8
:1041800084F84330AAE723692A4649464046D04787
:104190000130ADD023689B0713D4E068039B98429D
:1041A000B8BF1846A6E70123324649464046D047E5
:1041B00001309DD00135E36803995B1AAB42F2DC14
:1041C000EBE7002504F11906F5E700BFFD42000802
:1041D0000E430008884210B501EB020402D9844264
:1041E000234607D8431EA14208D011F8012B03F83B
:1041F000012FF8E7024401468A4200D110BD13F8AE
:10420000014D02F8014DF7E738B5064D002304468D
:1042100008462B60FCF72CFF431C02D12B6803B12E
:10422000236038BDAC0200200A44914200F1FF3304
:1042300000D1704710B511F8014B03F8014F9142BE
:10424000F9D110BD2DE9F041804614460E4621B942
:10425000BDE8F0411146FFF749BC2AB9FFF7DAFB88
:1042600025462846BDE8F08100F01BF88442074649
:1042700002D8B4EB500F12D821464046FFF736FC67
:1042800005460028EDD0BC422246314628BF3A46BA
:10429000FFF7CAFF31464046FFF7BCFBE1E7354672
:1042A000DFE751F8043C181F002BBCBF0B58C018A7
:1042B00070470000F8B500BFF8BC08BC9E467047C8
:0C42C000F8B500BFF8BC08BC9E46704773
:1042CC0025640D0A00000000000000000000000042
:1042DC0001020304060708090000000001020304A0
:1042EC00232D302B2000686C4C00656667454647D3
:1042FC000030313233343536373839414243444556
:10430C0046003031323334353637383961626364C4
:04431C0065660000D2
:0843200090BFFF7F01000000C7
:04432800C5010008C3
:04432C00A1010008E3
:1043300058010020640100200024F4001000000057
:10434000010000000000000074010020DC010020DA
:1043500044020020000000000000000000000000F7
:10436000000000000000000000000000000000004D
:10437000000000000000000000000000000000003D
:10438000000000000000000000000000000000002D
:0443900014000020F5
:0400000508001101DD
:00000001FF
